{
  "contractName": "UserContract",
  "abi": [
    {
      "inputs": [],
      "stateMutability": "nonpayable",
      "type": "constructor"
    },
    {
      "inputs": [],
      "name": "userCount",
      "outputs": [
        {
          "internalType": "uint256",
          "name": "",
          "type": "uint256"
        }
      ],
      "stateMutability": "view",
      "type": "function",
      "constant": true
    },
    {
      "inputs": [
        {
          "internalType": "string",
          "name": "name",
          "type": "string"
        },
        {
          "internalType": "uint256",
          "name": "age",
          "type": "uint256"
        },
        {
          "internalType": "string",
          "name": "addr",
          "type": "string"
        }
      ],
      "name": "createUser",
      "outputs": [],
      "stateMutability": "nonpayable",
      "type": "function"
    },
    {
      "inputs": [
        {
          "internalType": "uint256",
          "name": "_id",
          "type": "uint256"
        }
      ],
      "name": "setLandInspector",
      "outputs": [],
      "stateMutability": "nonpayable",
      "type": "function"
    },
    {
      "inputs": [],
      "name": "getAllUsers",
      "outputs": [
        {
          "components": [
            {
              "internalType": "string",
              "name": "name",
              "type": "string"
            },
            {
              "internalType": "uint256",
              "name": "age",
              "type": "uint256"
            },
            {
              "internalType": "string",
              "name": "addr",
              "type": "string"
            },
            {
              "internalType": "address",
              "name": "userAddress",
              "type": "address"
            },
            {
              "internalType": "bool",
              "name": "isLandInspector",
              "type": "bool"
            },
            {
              "internalType": "uint256",
              "name": "totalLandsOwned",
              "type": "uint256"
            },
            {
              "internalType": "uint256",
              "name": "totalEarnings",
              "type": "uint256"
            },
            {
              "internalType": "uint256",
              "name": "totalSpent",
              "type": "uint256"
            }
          ],
          "internalType": "struct UserContract.UserStruct[]",
          "name": "",
          "type": "tuple[]"
        }
      ],
      "stateMutability": "view",
      "type": "function",
      "constant": true
    },
    {
      "inputs": [
        {
          "internalType": "uint256",
          "name": "_id",
          "type": "uint256"
        }
      ],
      "name": "getUser",
      "outputs": [
        {
          "components": [
            {
              "internalType": "string",
              "name": "name",
              "type": "string"
            },
            {
              "internalType": "uint256",
              "name": "age",
              "type": "uint256"
            },
            {
              "internalType": "string",
              "name": "addr",
              "type": "string"
            },
            {
              "internalType": "address",
              "name": "userAddress",
              "type": "address"
            },
            {
              "internalType": "bool",
              "name": "isLandInspector",
              "type": "bool"
            },
            {
              "internalType": "uint256",
              "name": "totalLandsOwned",
              "type": "uint256"
            },
            {
              "internalType": "uint256",
              "name": "totalEarnings",
              "type": "uint256"
            },
            {
              "internalType": "uint256",
              "name": "totalSpent",
              "type": "uint256"
            }
          ],
          "internalType": "struct UserContract.UserStruct",
          "name": "",
          "type": "tuple"
        }
      ],
      "stateMutability": "view",
      "type": "function",
      "constant": true
    },
    {
      "inputs": [
        {
          "internalType": "uint256",
          "name": "_id",
          "type": "uint256"
        },
        {
          "internalType": "string",
          "name": "name",
          "type": "string"
        },
        {
          "internalType": "uint256",
          "name": "age",
          "type": "uint256"
        },
        {
          "internalType": "string",
          "name": "addr",
          "type": "string"
        }
      ],
      "name": "modifyUser",
      "outputs": [],
      "stateMutability": "nonpayable",
      "type": "function"
    },
    {
      "inputs": [
        {
          "internalType": "uint256",
          "name": "_id",
          "type": "uint256"
        }
      ],
      "name": "increaseLandOwnership",
      "outputs": [],
      "stateMutability": "nonpayable",
      "type": "function"
    },
    {
      "inputs": [
        {
          "internalType": "uint256",
          "name": "_id",
          "type": "uint256"
        },
        {
          "internalType": "uint256",
          "name": "amount",
          "type": "uint256"
        }
      ],
      "name": "increaseEarnings",
      "outputs": [],
      "stateMutability": "nonpayable",
      "type": "function"
    },
    {
      "inputs": [
        {
          "internalType": "uint256",
          "name": "_id",
          "type": "uint256"
        },
        {
          "internalType": "uint256",
          "name": "amount",
          "type": "uint256"
        }
      ],
      "name": "increaseSpendings",
      "outputs": [],
      "stateMutability": "nonpayable",
      "type": "function"
    }
  ],
  "bytecode": "0x6080604052600080553480156200001557600080fd5b506200006a6040518060400160405280600a8152602001695a696e20456464696e6560b01b815250601460405180604001604052806006815260200165454e5349415360d01b8152506200007c60201b60201c565b620000766000620001a8565b62000301565b6000805490806200008d83620002d9565b90915550506040805161010081018252848152602080820185905291810183905233606082015260006080820181905260a0820181905260c0820181905260e08201819052600180548082018255915281518051929360079092027fb10e2d527612073b26eecdfd717e6a320cf44b4afac2b0732d9fcbe2b7fa0cf601926200011a9284920190620001f6565b506020828101516001830155604083015180516200013f9260028501920190620001f6565b50606082015160038201805460808501511515600160a01b0260ff60a01b196001600160a01b039094166001600160a01b0319909216919091179290921691909117905560a0820151600482015560c0820151600582015560e090910151600690910155505050565b6001808281548110620001cb57634e487b7160e01b600052603260045260246000fd5b906000526020600020906007020160030160146101000a81548160ff02191690831515021790555050565b82805462000204906200029c565b90600052602060002090601f01602090048101928262000228576000855562000273565b82601f106200024357805160ff191683800117855562000273565b8280016001018555821562000273579182015b828111156200027357825182559160200191906001019062000256565b506200028192915062000285565b5090565b5b8082111562000281576000815560010162000286565b600281046001821680620002b157607f821691505b60208210811415620002d357634e487b7160e01b600052602260045260246000fd5b50919050565b6000600019821415620002fa57634e487b7160e01b81526011600452602481fd5b5060010190565b610caf80620003116000396000f3fe608060405234801561001057600080fd5b50600436106100935760003560e01c8063b0467deb11610066578063b0467deb146100f1578063b08f080a14610111578063e2842d7914610124578063f698a8f814610139578063fd8168ef1461014c57610093565b806307973ccf14610098578063195ac7a0146100b657806326bd8772146100cb5780632887b519146100de575b600080fd5b6100a061015f565b6040516100ad9190610bd6565b60405180910390f35b6100c96100c43660046109e1565b610165565b005b6100c96100d9366004610977565b6101af565b6100c96100ec366004610a6d565b6102d5565b6101046100ff3660046109e1565b610320565b6040516100ad9190610bbc565b6100c961011f366004610a6d565b6104db565b61012c61051d565b6040516100ad9190610b5c565b6100c96101473660046109f9565b6106f5565b6100c961015a3660046109e1565b6107c0565b60005481565b600180828154811061018757634e487b7160e01b600052603260045260246000fd5b906000526020600020906007020160040160008282546101a79190610bdf565b909155505050565b6000805490806101be83610c32565b90915550506040805161010081018252848152602080820185905291810183905233606082015260006080820181905260a0820181905260c0820181905260e08201819052600180548082018255915281518051929360079092027fb10e2d527612073b26eecdfd717e6a320cf44b4afac2b0732d9fcbe2b7fa0cf60192610249928492019061080d565b5060208281015160018301556040830151805161026c926002850192019061080d565b50606082015160038201805460808501511515600160a01b0260ff60a01b196001600160a01b039094166001600160a01b0319909216919091179290921691909117905560a0820151600482015560c0820151600582015560e090910151600690910155505050565b80600183815481106102f757634e487b7160e01b600052603260045260246000fd5b906000526020600020906007020160060160008282546103179190610bdf565b90915550505050565b610328610891565b6001828154811061034957634e487b7160e01b600052603260045260246000fd5b90600052602060002090600702016040518061010001604052908160008201805461037390610bf7565b80601f016020809104026020016040519081016040528092919081815260200182805461039f90610bf7565b80156103ec5780601f106103c1576101008083540402835291602001916103ec565b820191906000526020600020905b8154815290600101906020018083116103cf57829003601f168201915b505050505081526020016001820154815260200160028201805461040f90610bf7565b80601f016020809104026020016040519081016040528092919081815260200182805461043b90610bf7565b80156104885780601f1061045d57610100808354040283529160200191610488565b820191906000526020600020905b81548152906001019060200180831161046b57829003601f168201915b505050918352505060038201546001600160a01b0381166020830152600160a01b900460ff1615156040820152600482015460608201526005820154608082015260069091015460a09091015292915050565b80600183815481106104fd57634e487b7160e01b600052603260045260246000fd5b906000526020600020906007020160050160008282546103179190610bdf565b60606001805480602002602001604051908101604052809291908181526020016000905b828210156106ec57838290600052602060002090600702016040518061010001604052908160008201805461057590610bf7565b80601f01602080910402602001604051908101604052809291908181526020018280546105a190610bf7565b80156105ee5780601f106105c3576101008083540402835291602001916105ee565b820191906000526020600020905b8154815290600101906020018083116105d157829003601f168201915b505050505081526020016001820154815260200160028201805461061190610bf7565b80601f016020809104026020016040519081016040528092919081815260200182805461063d90610bf7565b801561068a5780601f1061065f5761010080835404028352916020019161068a565b820191906000526020600020905b81548152906001019060200180831161066d57829003601f168201915b505050918352505060038201546001600160a01b038116602080840191909152600160a01b90910460ff1615156040830152600483015460608301526005830154608083015260069092015460a0909101529082526001929092019101610541565b50505050905090565b826001858154811061071757634e487b7160e01b600052603260045260246000fd5b9060005260206000209060070201600001908051906020019061073b92919061080d565b50816001858154811061075e57634e487b7160e01b600052603260045260246000fd5b906000526020600020906007020160010181905550806001858154811061079557634e487b7160e01b600052603260045260246000fd5b906000526020600020906007020160020190805190602001906107b992919061080d565b5050505050565b60018082815481106107e257634e487b7160e01b600052603260045260246000fd5b906000526020600020906007020160030160146101000a81548160ff02191690831515021790555050565b82805461081990610bf7565b90600052602060002090601f01602090048101928261083b5760008555610881565b82601f1061085457805160ff1916838001178555610881565b82800160010185558215610881579182015b82811115610881578251825591602001919060010190610866565b5061088d9291506108e1565b5090565b60405180610100016040528060608152602001600081526020016060815260200160006001600160a01b031681526020016000151581526020016000815260200160008152602001600081525090565b5b8082111561088d57600081556001016108e2565b600082601f830112610906578081fd5b813567ffffffffffffffff8082111561092157610921610c63565b604051601f8301601f19168101602001828111828210171561094557610945610c63565b60405282815284830160200186101561095c578384fd5b82602086016020830137918201602001929092529392505050565b60008060006060848603121561098b578283fd5b833567ffffffffffffffff808211156109a2578485fd5b6109ae878388016108f6565b94506020860135935060408601359150808211156109ca578283fd5b506109d7868287016108f6565b9150509250925092565b6000602082840312156109f2578081fd5b5035919050565b60008060008060808587031215610a0e578081fd5b84359350602085013567ffffffffffffffff80821115610a2c578283fd5b610a38888389016108f6565b9450604087013593506060870135915080821115610a54578283fd5b50610a61878288016108f6565b91505092959194509250565b60008060408385031215610a7f578182fd5b50508035926020909101359150565b60008151808452815b81811015610ab357602081850181015186830182015201610a97565b81811115610ac45782602083870101525b50601f01601f19169290920160200192915050565b60006101008251818552610aef82860182610a8e565b9150506020830151602085015260408301518482036040860152610b138282610a8e565b91505060018060a01b03606084015116606085015260808301511515608085015260a083015160a085015260c083015160c085015260e083015160e08501528091505092915050565b6000602080830181845280855180835260408601915060408482028701019250838701855b82811015610baf57603f19888603018452610b9d858351610ad9565b94509285019290850190600101610b81565b5092979650505050505050565b600060208252610bcf6020830184610ad9565b9392505050565b90815260200190565b60008219821115610bf257610bf2610c4d565b500190565b600281046001821680610c0b57607f821691505b60208210811415610c2c57634e487b7160e01b600052602260045260246000fd5b50919050565b6000600019821415610c4657610c46610c4d565b5060010190565b634e487b7160e01b600052601160045260246000fd5b634e487b7160e01b600052604160045260246000fdfea2646970667358221220bc66d794c70ba3ab630207071895db190064e4d79fc5c1cfad25d9c810fe539464736f6c63430008000033",
  "immutableReferences": {},
  "source": "// SPDX-License-Identifier: MIT\r\npragma solidity >=0.4.22;\r\npragma experimental ABIEncoderV2;\r\ncontract UserContract {\r\n\tuint public userCount = 0;\r\n\tstruct UserStruct {\r\n\t\tstring name;\r\n\t\tuint age;\r\n\t\tstring addr;\r\n\t\taddress userAddress;\r\n\t\tbool isLandInspector;\r\n\t\tuint totalLandsOwned;\r\n\t\tuint totalEarnings;\r\n\t\tuint totalSpent;\r\n\t}\r\n\tUserStruct[] users;\r\n\tconstructor() public {\r\n\t\tcreateUser(\"Zin Eddine\", 20, \"ENSIAS\");\r\n\t\tsetLandInspector(0);\r\n\t}\r\n\r\n \tfunction createUser(string memory name, uint age, string memory addr) public {\r\n \t\tuserCount++;\r\n\t\tusers.push(UserStruct(name, age, addr, msg.sender, false, 0, 0, 0));\r\n\t}\r\n\r\n\tfunction setLandInspector(uint _id) public {\r\n\t\tusers[_id].isLandInspector = true;\r\n\t}\r\n\tfunction getAllUsers() public view returns (UserStruct[] memory) {\r\n\t\treturn users;\r\n\t}\r\n\r\n\tfunction getUser(uint _id) public view returns (UserStruct memory) {\r\n\t\treturn users[_id];\r\n\t}\r\n\r\n\tfunction modifyUser(uint _id, string memory name, uint age, string memory addr) public {\r\n\t\tusers[_id].name = name ;\r\n\t\tusers[_id].age = age ;\r\n\t\tusers[_id].addr = addr ;\r\n\t}\r\n\r\n\tfunction increaseLandOwnership(uint _id) public {\r\n\t\tusers[_id].totalLandsOwned += 1;\r\n\t}\r\n\r\n\tfunction increaseEarnings(uint _id, uint amount) public {\r\n\t\tusers[_id].totalEarnings += amount;\r\n\t}\r\n\r\n\tfunction increaseSpendings(uint _id, uint amount) public {\r\n\t\tusers[_id].totalSpent += amount;\r\n\t}\r\n\r\n\r\n}",
  "sourcePath": "D:\\PFA\\ethereum-based-land-registry-marketplace\\land-registery-blockchain\\contracts\\UserContract.sol",
  "compiler": {
    "name": "solc",
    "version": "0.8.0+commit.c7dfd78e.Emscripten.clang"
  },
  "schemaVersion": "3.4.14",
  "updatedAt": "2023-06-03T00:07:13.824Z",
  "networkType": "ethereum",
  "devdoc": {
    "kind": "dev",
    "methods": {},
    "version": 1
  },
  "userdoc": {
    "kind": "user",
    "methods": {},
    "version": 1
  }
}