{
  "contractName": "UserContract",
  "abi": [
    {
      "inputs": [],
      "payable": false,
      "stateMutability": "nonpayable",
      "type": "constructor"
    },
    {
      "constant": true,
      "inputs": [],
      "name": "userCount",
      "outputs": [
        {
          "internalType": "uint256",
          "name": "",
          "type": "uint256"
        }
      ],
      "payable": false,
      "stateMutability": "view",
      "type": "function"
    },
    {
      "constant": false,
      "inputs": [
        {
          "internalType": "string",
          "name": "name",
          "type": "string"
        },
        {
          "internalType": "string",
          "name": "verificationCode",
          "type": "string"
        },
        {
          "internalType": "uint256",
          "name": "age",
          "type": "uint256"
        },
        {
          "internalType": "string",
          "name": "addr",
          "type": "string"
        }
      ],
      "name": "createUser",
      "outputs": [],
      "payable": false,
      "stateMutability": "nonpayable",
      "type": "function"
    },
    {
      "constant": false,
      "inputs": [
        {
          "internalType": "uint256",
          "name": "_id",
          "type": "uint256"
        }
      ],
      "name": "verifyUser",
      "outputs": [],
      "payable": false,
      "stateMutability": "nonpayable",
      "type": "function"
    },
    {
      "constant": false,
      "inputs": [
        {
          "internalType": "uint256",
          "name": "_id",
          "type": "uint256"
        }
      ],
      "name": "setLandInspector",
      "outputs": [],
      "payable": false,
      "stateMutability": "nonpayable",
      "type": "function"
    },
    {
      "constant": true,
      "inputs": [],
      "name": "getAllUsers",
      "outputs": [
        {
          "components": [
            {
              "internalType": "string",
              "name": "name",
              "type": "string"
            },
            {
              "internalType": "string",
              "name": "verificationCode",
              "type": "string"
            },
            {
              "internalType": "uint256",
              "name": "age",
              "type": "uint256"
            },
            {
              "internalType": "string",
              "name": "addr",
              "type": "string"
            },
            {
              "internalType": "address",
              "name": "userAddress",
              "type": "address"
            },
            {
              "internalType": "bool",
              "name": "isverified",
              "type": "bool"
            },
            {
              "internalType": "bool",
              "name": "isLandInspector",
              "type": "bool"
            }
          ],
          "internalType": "struct UserContract.UserStruct[]",
          "name": "",
          "type": "tuple[]"
        }
      ],
      "payable": false,
      "stateMutability": "view",
      "type": "function"
    },
    {
      "constant": true,
      "inputs": [
        {
          "internalType": "uint256",
          "name": "_id",
          "type": "uint256"
        }
      ],
      "name": "getUser",
      "outputs": [
        {
          "components": [
            {
              "internalType": "string",
              "name": "name",
              "type": "string"
            },
            {
              "internalType": "string",
              "name": "verificationCode",
              "type": "string"
            },
            {
              "internalType": "uint256",
              "name": "age",
              "type": "uint256"
            },
            {
              "internalType": "string",
              "name": "addr",
              "type": "string"
            },
            {
              "internalType": "address",
              "name": "userAddress",
              "type": "address"
            },
            {
              "internalType": "bool",
              "name": "isverified",
              "type": "bool"
            },
            {
              "internalType": "bool",
              "name": "isLandInspector",
              "type": "bool"
            }
          ],
          "internalType": "struct UserContract.UserStruct",
          "name": "",
          "type": "tuple"
        }
      ],
      "payable": false,
      "stateMutability": "view",
      "type": "function"
    },
    {
      "constant": false,
      "inputs": [
        {
          "internalType": "uint256",
          "name": "_id",
          "type": "uint256"
        },
        {
          "internalType": "string",
          "name": "name",
          "type": "string"
        },
        {
          "internalType": "string",
          "name": "verificationCode",
          "type": "string"
        },
        {
          "internalType": "uint256",
          "name": "age",
          "type": "uint256"
        },
        {
          "internalType": "string",
          "name": "addr",
          "type": "string"
        }
      ],
      "name": "modifyUser",
      "outputs": [],
      "payable": false,
      "stateMutability": "nonpayable",
      "type": "function"
    }
  ],
  "bytecode": "0x6080604052600080553480156200001557600080fd5b5062000081604051806040016040528060048152602001635a796e6f60e01b815250604051806040016040528060048152602001631d195cdd60e21b815250601460405180604001604052806006815260200165454e5349415360d01b8152506200008760201b60201c565b62000260565b60008054600190810182556040805160e08101825287815260208082018890529181018690526060810185905233608082015260a0810184905260c08101849052825480840180855593909452805180519394919360059092027fb10e2d527612073b26eecdfd717e6a320cf44b4afac2b0732d9fcbe2b7fa0cf601926200011592849290910190620001bb565b506020828101518051620001309260018501920190620001bb565b50604082015160028201556060820151805162000158916003840191602090910190620001bb565b5060808201516004909101805460a084015160c0909401511515600160a81b0260ff60a81b19941515600160a01b0260ff60a01b196001600160a01b039095166001600160a01b0319909316929092179390931617929092161790555050505050565b828054600181600116156101000203166002900490600052602060002090601f016020900481019282601f10620001fe57805160ff19168380011785556200022e565b828001600101855582156200022e579182015b828111156200022e57825182559160200191906001019062000211565b506200023c92915062000240565b5090565b6200025d91905b808211156200023c576000815560010162000247565b90565b610dd980620002706000396000f3fe608060405234801561001057600080fd5b506004361061007d5760003560e01c8063b0467deb1161005b578063b0467deb146100c8578063c3f0d81a146100e8578063e2842d79146100fb578063fd8168ef146101105761007d565b806307973ccf146100825780633ec01b50146100a057806342365eb8146100b5575b600080fd5b61008a610123565b6040516100979190610cad565b60405180910390f35b6100b36100ae366004610984565b610129565b005b6100b36100c3366004610a2c565b610257565b6100db6100d6366004610a2c565b610290565b6040516100979190610c9c565b6100b36100f6366004610a52565b6104d0565b610103610593565b6040516100979190610c8b565b6100b361011e366004610a2c565b610804565b60005481565b60008054600190810182556040805160e08101825287815260208082018890529181018690526060810185905233608082015260a0810184905260c08101849052825480840180855593909452805180519394919360059092027fb10e2d527612073b26eecdfd717e6a320cf44b4afac2b0732d9fcbe2b7fa0cf601926101b59284929091019061083d565b5060208281015180516101ce926001850192019061083d565b5060408201516002820155606082015180516101f491600384019160209091019061083d565b5060808201516004909101805460a084015160c0909401511515600160a81b0260ff60a81b19941515600160a01b0260ff60a01b196001600160a01b039095166001600160a01b0319909316929092179390931617929092161790555050505050565b600180828154811061026557fe5b906000526020600020906005020160040160146101000a81548160ff02191690831515021790555050565b6102986108bb565b600182815481106102a557fe5b6000918252602091829020604080516005939093029091018054600260018216156101009081026000190190921604601f81018690049095028401810190925260e08301848152929390928492909184918401828280156103475780601f1061031c57610100808354040283529160200191610347565b820191906000526020600020905b81548152906001019060200180831161032a57829003601f168201915b50505050508152602001600182018054600181600116156101000203166002900480601f0160208091040260200160405190810160405280929190818152602001828054600181600116156101000203166002900480156103e95780601f106103be576101008083540402835291602001916103e9565b820191906000526020600020905b8154815290600101906020018083116103cc57829003601f168201915b505050918352505060028281015460208084019190915260038401805460408051601f600019610100600186161502019093169590950491820184900484028501840181528185529094019390918301828280156104885780601f1061045d57610100808354040283529160200191610488565b820191906000526020600020905b81548152906001019060200180831161046b57829003601f168201915b5050509183525050600491909101546001600160a01b038116602083015260ff600160a01b8204811615156040840152600160a81b9091041615156060909101529050919050565b83600186815481106104de57fe5b9060005260206000209060050201600001908051906020019061050292919061083d565b50826001868154811061051157fe5b9060005260206000209060050201600101908051906020019061053592919061083d565b50816001868154811061054457fe5b906000526020600020906005020160020181905550806001868154811061056757fe5b9060005260206000209060050201600301908051906020019061058b92919061083d565b505050505050565b60606001805480602002602001604051908101604052809291908181526020016000905b828210156107fa57600084815260209081902060408051600586029092018054600260018216156101009081026000190190921604601f81018690049095028401810190925260e083018481529293909284929091849184018282801561065f5780601f106106345761010080835404028352916020019161065f565b820191906000526020600020905b81548152906001019060200180831161064257829003601f168201915b50505050508152602001600182018054600181600116156101000203166002900480601f0160208091040260200160405190810160405280929190818152602001828054600181600116156101000203166002900480156107015780601f106106d657610100808354040283529160200191610701565b820191906000526020600020905b8154815290600101906020018083116106e457829003601f168201915b505050918352505060028281015460208084019190915260038401805460408051601f600019610100600186161502019093169590950491820184900484028501840181528185529094019390918301828280156107a05780601f10610775576101008083540402835291602001916107a0565b820191906000526020600020905b81548152906001019060200180831161078357829003601f168201915b5050509183525050600491909101546001600160a01b03811660208084019190915260ff600160a01b8304811615156040850152600160a81b909204909116151560609092019190915290825260019290920191016105b7565b5050505090505b90565b600180828154811061081257fe5b906000526020600020906005020160040160156101000a81548160ff02191690831515021790555050565b828054600181600116156101000203166002900490600052602060002090601f016020900481019282601f1061087e57805160ff19168380011785556108ab565b828001600101855582156108ab579182015b828111156108ab578251825591602001919060010190610890565b506108b7929150610905565b5090565b6040518060e001604052806060815260200160608152602001600081526020016060815260200160006001600160a01b031681526020016000151581526020016000151581525090565b61080191905b808211156108b7576000815560010161090b565b600082601f83011261093057600080fd5b813561094361093e82610ce2565b610cbb565b9150808252602083016020830185838301111561095f57600080fd5b61096a838284610d39565b50505092915050565b803561097e81610d7f565b92915050565b6000806000806080858703121561099a57600080fd5b843567ffffffffffffffff8111156109b157600080fd5b6109bd8782880161091f565b945050602085013567ffffffffffffffff8111156109da57600080fd5b6109e68782880161091f565b93505060406109f787828801610973565b925050606085013567ffffffffffffffff811115610a1457600080fd5b610a208782880161091f565b91505092959194509250565b600060208284031215610a3e57600080fd5b6000610a4a8484610973565b949350505050565b600080600080600060a08688031215610a6a57600080fd5b6000610a768888610973565b955050602086013567ffffffffffffffff811115610a9357600080fd5b610a9f8882890161091f565b945050604086013567ffffffffffffffff811115610abc57600080fd5b610ac88882890161091f565b9350506060610ad988828901610973565b925050608086013567ffffffffffffffff811115610af657600080fd5b610b028882890161091f565b9150509295509295909350565b6000610b1b8383610be0565b9392505050565b610b2b81610d1d565b82525050565b6000610b3c82610d10565b610b468185610d14565b935083602082028501610b5885610d0a565b8060005b85811015610b925784840389528151610b758582610b0f565b9450610b8083610d0a565b60209a909a0199925050600101610b5c565b5091979650505050505050565b610b2b81610d28565b6000610bb382610d10565b610bbd8185610d14565b9350610bcd818560208601610d45565b610bd681610d75565b9093019392505050565b805160e080845260009190840190610bf88282610ba8565b91505060208301518482036020860152610c128282610ba8565b9150506040830151610c276040860182610c82565b5060608301518482036060860152610c3f8282610ba8565b9150506080830151610c546080860182610b22565b5060a0830151610c6760a0860182610b9f565b5060c0830151610c7a60c0860182610b9f565b509392505050565b610b2b81610801565b60208082528101610b1b8184610b31565b60208082528101610b1b8184610be0565b6020810161097e8284610c82565b60405181810167ffffffffffffffff81118282101715610cda57600080fd5b604052919050565b600067ffffffffffffffff821115610cf957600080fd5b506020601f91909101601f19160190565b60200190565b5190565b90815260200190565b600061097e82610d2d565b151590565b6001600160a01b031690565b82818337506000910152565b60005b83811015610d60578181015183820152602001610d48565b83811115610d6f576000848401525b50505050565b601f01601f191690565b610d8881610801565b8114610d9357600080fd5b5056fea365627a7a723158208c2a92d5db571e40bc71fcfaff10169fb619d57fd09d3947c165abbc336b6e5f6c6578706572696d656e74616cf564736f6c63430005100040",
  "source": "// SPDX-License-Identifier: MIT\r\npragma solidity >=0.4.22;\r\npragma experimental ABIEncoderV2;\r\ncontract UserContract {\r\n\tuint public userCount = 0;\r\n\tstruct UserStruct {\r\n\t\tstring name;\r\n\t\tstring verificationCode;\r\n\t\tuint age;\r\n\t\tstring addr;\r\n\t\taddress userAddress;\r\n\t\tbool isverified;\r\n\t\tbool isLandInspector;\r\n\t}\r\n\tUserStruct[] users;\r\n\tconstructor() public {\r\n\t\tcreateUser(\"Zyno\", \"test\", 20, \"ENSIAS\");\r\n\t}\r\n\r\n \tfunction createUser(string memory name, string memory verificationCode, uint age, string memory addr) public {\r\n \t\tuserCount++;\r\n\t\tusers.push(UserStruct(name, verificationCode, age, addr, msg.sender, false, false));\r\n\t}\r\n\r\n\tfunction verifyUser(uint _id) public {\r\n\t\tusers[_id].isverified = true;\r\n\t}\r\n\r\n\tfunction setLandInspector(uint _id) public {\r\n\t\tusers[_id].isLandInspector = true;\r\n\t}\r\n\tfunction getAllUsers() public view returns (UserStruct[] memory) {\r\n\t\treturn users;\r\n\t}\r\n\r\n\tfunction getUser(uint _id) public view returns (UserStruct memory) {\r\n\t\treturn users[_id];\r\n\t}\r\n\r\n\tfunction modifyUser(uint _id, string memory name, string memory verificationCode, uint age, string memory addr) public {\r\n\t\tusers[_id].name = name ;\r\n\t\tusers[_id].verificationCode = verificationCode ;\r\n\t\tusers[_id].age = age ;\r\n\t\tusers[_id].addr = addr ;\r\n\t}\r\n\r\n\r\n}",
  "sourcePath": "/mnt/d/Land Registry/land-registery-blockchain/contracts/UserContract.sol",
  "compiler": {
    "name": "solc",
    "version": "0.5.16+commit.9c3226ce.Emscripten.clang"
  },
  "schemaVersion": "3.4.7",
  "updatedAt": "2022-06-11T21:09:23.816Z",
  "networkType": "ethereum",
  "devdoc": {
    "methods": {}
  },
  "userdoc": {
    "methods": {}
  }
}