{
  "contractName": "LandContract",
  "abi": [
    {
      "inputs": [],
      "payable": false,
      "stateMutability": "nonpayable",
      "type": "constructor"
    },
    {
      "constant": true,
      "inputs": [],
      "name": "landCount",
      "outputs": [
        {
          "internalType": "uint256",
          "name": "",
          "type": "uint256"
        }
      ],
      "payable": false,
      "stateMutability": "view",
      "type": "function"
    },
    {
      "constant": true,
      "inputs": [],
      "name": "getAllLands",
      "outputs": [
        {
          "components": [
            {
              "internalType": "uint256",
              "name": "area",
              "type": "uint256"
            },
            {
              "internalType": "string",
              "name": "location",
              "type": "string"
            },
            {
              "internalType": "string",
              "name": "addr",
              "type": "string"
            },
            {
              "internalType": "address",
              "name": "owner",
              "type": "address"
            },
            {
              "internalType": "bool",
              "name": "verificationStatus",
              "type": "bool"
            },
            {
              "internalType": "uint256",
              "name": "price",
              "type": "uint256"
            }
          ],
          "internalType": "struct LandContract.LandStruct[]",
          "name": "",
          "type": "tuple[]"
        }
      ],
      "payable": false,
      "stateMutability": "view",
      "type": "function"
    },
    {
      "constant": false,
      "inputs": [
        {
          "internalType": "uint256",
          "name": "area",
          "type": "uint256"
        },
        {
          "internalType": "string",
          "name": "location",
          "type": "string"
        },
        {
          "internalType": "string",
          "name": "addr",
          "type": "string"
        },
        {
          "internalType": "uint256",
          "name": "price",
          "type": "uint256"
        }
      ],
      "name": "createLand",
      "outputs": [],
      "payable": false,
      "stateMutability": "nonpayable",
      "type": "function"
    },
    {
      "constant": false,
      "inputs": [
        {
          "internalType": "uint256",
          "name": "_id",
          "type": "uint256"
        }
      ],
      "name": "verifyLand",
      "outputs": [],
      "payable": false,
      "stateMutability": "nonpayable",
      "type": "function"
    },
    {
      "constant": true,
      "inputs": [
        {
          "internalType": "uint256",
          "name": "_id",
          "type": "uint256"
        }
      ],
      "name": "getLand",
      "outputs": [
        {
          "components": [
            {
              "internalType": "uint256",
              "name": "area",
              "type": "uint256"
            },
            {
              "internalType": "string",
              "name": "location",
              "type": "string"
            },
            {
              "internalType": "string",
              "name": "addr",
              "type": "string"
            },
            {
              "internalType": "address",
              "name": "owner",
              "type": "address"
            },
            {
              "internalType": "bool",
              "name": "verificationStatus",
              "type": "bool"
            },
            {
              "internalType": "uint256",
              "name": "price",
              "type": "uint256"
            }
          ],
          "internalType": "struct LandContract.LandStruct",
          "name": "",
          "type": "tuple"
        }
      ],
      "payable": false,
      "stateMutability": "view",
      "type": "function"
    },
    {
      "constant": false,
      "inputs": [
        {
          "internalType": "uint256",
          "name": "_id",
          "type": "uint256"
        },
        {
          "internalType": "uint256",
          "name": "area",
          "type": "uint256"
        },
        {
          "internalType": "string",
          "name": "location",
          "type": "string"
        },
        {
          "internalType": "string",
          "name": "addr",
          "type": "string"
        },
        {
          "internalType": "uint256",
          "name": "price",
          "type": "uint256"
        }
      ],
      "name": "modifyLand",
      "outputs": [],
      "payable": false,
      "stateMutability": "nonpayable",
      "type": "function"
    },
    {
      "constant": false,
      "inputs": [
        {
          "internalType": "uint256",
          "name": "_id",
          "type": "uint256"
        },
        {
          "internalType": "address",
          "name": "_newOwner",
          "type": "address"
        }
      ],
      "name": "transferLand",
      "outputs": [],
      "payable": false,
      "stateMutability": "nonpayable",
      "type": "function"
    }
  ],
  "bytecode": "0x60806040526000805534801561001457600080fd5b50610066600b604051806040016040528060078152602001664d6f726f63636f60c81b81525060405180608001604052806045815260200162000ec160459139620186a06001600160e01b0361006b16565b610226565b60008054600190810182556040805160c08101825287815260208082018881529282018790523360608301526080820185905260a0820186905283548085018086559490955281517fb10e2d527612073b26eecdfd717e6a320cf44b4afac2b0732d9fcbe2b7fa0cf660059096029586019081559251805194959294610118937fb10e2d527612073b26eecdfd717e6a320cf44b4afac2b0732d9fcbe2b7fa0cf70192919091019061018b565b506040820151805161013491600284019160209091019061018b565b50606082015160038201805460808501511515600160a01b0260ff60a01b196001600160a01b039094166001600160a01b0319909216919091179290921691909117905560a0909101516004909101555050505050565b828054600181600116156101000203166002900490600052602060002090601f016020900481019282601f106101cc57805160ff19168380011785556101f9565b828001600101855582156101f9579182015b828111156101f95782518255916020019190600101906101de565b50610205929150610209565b5090565b61022391905b80821115610205576000815560010161020f565b90565b610c8b80620002366000396000f3fe608060405234801561001057600080fd5b506004361061007d5760003560e01c8063c798ff7d1161005b578063c798ff7d146100c8578063d7bce658146100db578063f02dd53f146100f0578063f9c43bdf146101105761007d565b8063289c64251461008257806364f88b7114610097578063b7b6e543146100aa575b600080fd5b61009561009036600461089b565b610123565b005b6100956100a536600461092c565b610243565b6100b26102f6565b6040516100bf9190610b34565b60405180910390f35b6100956100d6366004610861565b6104ca565b6100e3610511565b6040516100bf9190610b56565b6101036100fe36600461083b565b610517565b6040516100bf9190610b45565b61009561011e36600461083b565b6106b9565b60008054600190810182556040805160c08101825287815260208082018881529282018790523360608301526080820185905260a0820186905283548085018086559490955281517fb10e2d527612073b26eecdfd717e6a320cf44b4afac2b0732d9fcbe2b7fa0cf6600590960295860190815592518051949592946101d0937fb10e2d527612073b26eecdfd717e6a320cf44b4afac2b0732d9fcbe2b7fa0cf7019291909101906106f2565b50604082015180516101ec9160028401916020909101906106f2565b50606082015160038201805460808501511515600160a01b0260ff60a01b196001600160a01b039094166001600160a01b0319909216919091179290921691909117905560a0909101516004909101555050505050565b836001868154811061025157fe5b906000526020600020906005020160000181905550826001868154811061027457fe5b906000526020600020906005020160010190805190602001906102989291906106f2565b5081600186815481106102a757fe5b906000526020600020906005020160020190805190602001906102cb9291906106f2565b5080600186815481106102da57fe5b9060005260206000209060050201600401819055505050505050565b60606001805480602002602001604051908101604052809291908181526020016000905b828210156104c057838290600052602060002090600502016040518060c001604052908160008201548152602001600182018054600181600116156101000203166002900480601f0160208091040260200160405190810160405280929190818152602001828054600181600116156101000203166002900480156103e05780601f106103b5576101008083540402835291602001916103e0565b820191906000526020600020905b8154815290600101906020018083116103c357829003601f168201915b5050509183525050600282810180546040805160206001841615610100026000190190931694909404601f810183900483028501830190915280845293810193908301828280156104725780601f1061044757610100808354040283529160200191610472565b820191906000526020600020905b81548152906001019060200180831161045557829003601f168201915b505050918352505060038201546001600160a01b038116602080840191909152600160a01b90910460ff1615156040830152600490920154606090910152908252600192909201910161031a565b5050505090505b90565b80600183815481106104d857fe5b906000526020600020906005020160030160006101000a8154816001600160a01b0302191690836001600160a01b031602179055505050565b60005481565b61051f610770565b6001828154811061052c57fe5b90600052602060002090600502016040518060c001604052908160008201548152602001600182018054600181600116156101000203166002900480601f0160208091040260200160405190810160405280929190818152602001828054600181600116156101000203166002900480156105e85780601f106105bd576101008083540402835291602001916105e8565b820191906000526020600020905b8154815290600101906020018083116105cb57829003601f168201915b5050509183525050600282810180546040805160206001841615610100026000190190931694909404601f8101839004830285018301909152808452938101939083018282801561067a5780601f1061064f5761010080835404028352916020019161067a565b820191906000526020600020905b81548152906001019060200180831161065d57829003601f168201915b505050918352505060038201546001600160a01b0381166020830152600160a01b900460ff161515604082015260049091015460609091015292915050565b60018082815481106106c757fe5b906000526020600020906005020160030160146101000a81548160ff02191690831515021790555050565b828054600181600116156101000203166002900490600052602060002090601f016020900481019282601f1061073357805160ff1916838001178555610760565b82800160010185558215610760579182015b82811115610760578251825591602001919060010190610745565b5061076c9291506107b1565b5090565b6040518060c0016040528060008152602001606081526020016060815260200160006001600160a01b03168152602001600015158152602001600081525090565b6104c791905b8082111561076c57600081556001016107b7565b80356107d681610c28565b92915050565b600082601f8301126107ed57600080fd5b81356108006107fb82610b8b565b610b64565b9150808252602083016020830185838301111561081c57600080fd5b610827838284610be2565b50505092915050565b80356107d681610c3f565b60006020828403121561084d57600080fd5b60006108598484610830565b949350505050565b6000806040838503121561087457600080fd5b60006108808585610830565b9250506020610891858286016107cb565b9150509250929050565b600080600080608085870312156108b157600080fd5b60006108bd8787610830565b945050602085013567ffffffffffffffff8111156108da57600080fd5b6108e6878288016107dc565b935050604085013567ffffffffffffffff81111561090357600080fd5b61090f878288016107dc565b925050606061092087828801610830565b91505092959194509250565b600080600080600060a0868803121561094457600080fd5b60006109508888610830565b955050602061096188828901610830565b945050604086013567ffffffffffffffff81111561097e57600080fd5b61098a888289016107dc565b935050606086013567ffffffffffffffff8111156109a757600080fd5b6109b3888289016107dc565b92505060806109c488828901610830565b9150509295509295909350565b60006109dd8383610aa2565b9392505050565b6109ed81610bc6565b82525050565b60006109fe82610bb9565b610a088185610bbd565b935083602082028501610a1a85610bb3565b8060005b85811015610a545784840389528151610a3785826109d1565b9450610a4283610bb3565b60209a909a0199925050600101610a1e565b5091979650505050505050565b6109ed81610bd1565b6000610a7582610bb9565b610a7f8185610bbd565b9350610a8f818560208601610bee565b610a9881610c1e565b9093019392505050565b805160009060c0840190610ab68582610b2b565b5060208301518482036020860152610ace8282610a6a565b91505060408301518482036040860152610ae88282610a6a565b9150506060830151610afd60608601826109e4565b506080830151610b106080860182610a61565b5060a0830151610b2360a0860182610b2b565b509392505050565b6109ed816104c7565b602080825281016109dd81846109f3565b602080825281016109dd8184610aa2565b602081016107d68284610b2b565b60405181810167ffffffffffffffff81118282101715610b8357600080fd5b604052919050565b600067ffffffffffffffff821115610ba257600080fd5b506020601f91909101601f19160190565b60200190565b5190565b90815260200190565b60006107d682610bd6565b151590565b6001600160a01b031690565b82818337506000910152565b60005b83811015610c09578181015183820152602001610bf1565b83811115610c18576000848401525b50505050565b601f01601f191690565b610c3181610bc6565b8114610c3c57600080fd5b50565b610c31816104c756fea365627a7a72315820a568c7c12e617c4eea60e2066208973fdd07f4475ab2cf3330b062c03a5a0a256c6578706572696d656e74616cf564736f6c63430005100040454e534941532c204176656e7565204d6f68616d656442656e20416264656c6c61682052656772616775692c4d6164696e617420416c20497266616e652c2052616261742e",
  "source": "// SPDX-License-Identifier: UNLICENSED\r\npragma solidity >=0.4.22;\r\npragma experimental ABIEncoderV2;\r\n\r\ncontract LandContract {\r\n\tuint public landCount = 0;\r\n\tstruct LandStruct {\r\n \t\tuint area;\r\n \t\tstring location;\r\n \t\tstring addr;\r\n \t\taddress owner;\r\n \t\tbool verificationStatus;\r\n \t\tuint price;\r\n\t}\r\n\tLandStruct[] lands;\r\n\r\n\tconstructor () public {\r\n\t\tcreateLand(11, \"Morocco\", \"ENSIAS, Avenue MohamedBen Abdellah Regragui,Madinat Al Irfane, Rabat.\", 100000);\r\n\t}\r\n\r\n\tfunction getAllLands() public view returns (LandStruct[] memory) {\r\n\t\treturn lands;\r\n\t}\r\n\r\n\tfunction createLand(uint area, string memory location, string memory addr, uint price) public {\r\n\t\tlandCount++;\r\n\t\tlands.push(LandStruct(area, location, addr, msg.sender, false, price));\r\n\t}\r\n\r\n\tfunction verifyLand(uint _id) public {\r\n\t\tlands[_id].verificationStatus = true;\r\n\t}\r\n \r\n\tfunction getLand(uint _id) public view returns (LandStruct memory) {\r\n\t\treturn lands[_id];\r\n\t}\r\n\r\n\tfunction modifyLand(uint _id, uint area, string memory location, string memory addr, uint price) public {\r\n\t\tlands[_id].area = area;\r\n\t\tlands[_id].location = location;\r\n\t\tlands[_id].addr = addr;\r\n\t\tlands[_id].price = price;\r\n\t}\r\n\r\n\tfunction transferLand(uint _id, address _newOwner) public {\r\n\t\tlands[_id].owner = _newOwner;\r\n\t}\r\n\r\n}\r\n",
  "sourcePath": "/mnt/d/Land Registry/land-registery-blockchain/contracts/LandContract.sol",
  "compiler": {
    "name": "solc",
    "version": "0.5.16+commit.9c3226ce.Emscripten.clang"
  },
  "schemaVersion": "3.4.7",
  "updatedAt": "2022-06-11T21:09:23.796Z",
  "networkType": "ethereum",
  "devdoc": {
    "methods": {}
  },
  "userdoc": {
    "methods": {}
  }
}