{
  "contractName": "LandContract",
  "abi": [
    {
      "inputs": [],
      "stateMutability": "nonpayable",
      "type": "constructor"
    },
    {
      "inputs": [],
      "name": "landCount",
      "outputs": [
        {
          "internalType": "uint256",
          "name": "",
          "type": "uint256"
        }
      ],
      "stateMutability": "view",
      "type": "function",
      "constant": true
    },
    {
      "inputs": [],
      "name": "getAllLands",
      "outputs": [
        {
          "components": [
            {
              "internalType": "uint256",
              "name": "landNumber",
              "type": "uint256"
            },
            {
              "internalType": "uint256",
              "name": "area",
              "type": "uint256"
            },
            {
              "internalType": "string",
              "name": "addr",
              "type": "string"
            },
            {
              "internalType": "string",
              "name": "description",
              "type": "string"
            },
            {
              "internalType": "address",
              "name": "owner",
              "type": "address"
            },
            {
              "internalType": "bool",
              "name": "verificationStatus",
              "type": "bool"
            },
            {
              "internalType": "uint256",
              "name": "price",
              "type": "uint256"
            }
          ],
          "internalType": "struct LandContract.LandStruct[]",
          "name": "",
          "type": "tuple[]"
        }
      ],
      "stateMutability": "view",
      "type": "function",
      "constant": true
    },
    {
      "inputs": [
        {
          "internalType": "uint256",
          "name": "area",
          "type": "uint256"
        },
        {
          "internalType": "string",
          "name": "description",
          "type": "string"
        },
        {
          "internalType": "string",
          "name": "addr",
          "type": "string"
        },
        {
          "internalType": "uint256",
          "name": "price",
          "type": "uint256"
        }
      ],
      "name": "createLand",
      "outputs": [],
      "stateMutability": "nonpayable",
      "type": "function"
    },
    {
      "inputs": [
        {
          "internalType": "uint256",
          "name": "_id",
          "type": "uint256"
        }
      ],
      "name": "verifyLand",
      "outputs": [],
      "stateMutability": "nonpayable",
      "type": "function"
    },
    {
      "inputs": [
        {
          "internalType": "uint256",
          "name": "_id",
          "type": "uint256"
        }
      ],
      "name": "getLand",
      "outputs": [
        {
          "components": [
            {
              "internalType": "uint256",
              "name": "landNumber",
              "type": "uint256"
            },
            {
              "internalType": "uint256",
              "name": "area",
              "type": "uint256"
            },
            {
              "internalType": "string",
              "name": "addr",
              "type": "string"
            },
            {
              "internalType": "string",
              "name": "description",
              "type": "string"
            },
            {
              "internalType": "address",
              "name": "owner",
              "type": "address"
            },
            {
              "internalType": "bool",
              "name": "verificationStatus",
              "type": "bool"
            },
            {
              "internalType": "uint256",
              "name": "price",
              "type": "uint256"
            }
          ],
          "internalType": "struct LandContract.LandStruct",
          "name": "",
          "type": "tuple"
        }
      ],
      "stateMutability": "view",
      "type": "function",
      "constant": true
    },
    {
      "inputs": [
        {
          "internalType": "uint256",
          "name": "_id",
          "type": "uint256"
        },
        {
          "internalType": "uint256",
          "name": "area",
          "type": "uint256"
        },
        {
          "internalType": "string",
          "name": "description",
          "type": "string"
        },
        {
          "internalType": "string",
          "name": "addr",
          "type": "string"
        },
        {
          "internalType": "uint256",
          "name": "price",
          "type": "uint256"
        }
      ],
      "name": "modifyLand",
      "outputs": [],
      "stateMutability": "nonpayable",
      "type": "function"
    },
    {
      "inputs": [
        {
          "internalType": "uint256",
          "name": "_id",
          "type": "uint256"
        },
        {
          "internalType": "address",
          "name": "_newOwner",
          "type": "address"
        }
      ],
      "name": "transferLand",
      "outputs": [],
      "stateMutability": "nonpayable",
      "type": "function"
    }
  ],
  "bytecode": "0x6080604052600080553480156200001557600080fd5b5062000060600b604051806040016040528060078152602001664d6f726f63636f60c81b81525060405180608001604052806045815260200162000f1760459139620186a062000066565b620002cc565b6000805490806200007783620002a4565b90915550506040805160e08101825260008054825260208083018881529383018781526060840187905233608085015260a0840183905260c084018690526001805480820182559352835160069093027fb10e2d527612073b26eecdfd717e6a320cf44b4afac2b0732d9fcbe2b7fa0cf6810193845594517fb10e2d527612073b26eecdfd717e6a320cf44b4afac2b0732d9fcbe2b7fa0cf7860155518051939492936200014d937fb10e2d527612073b26eecdfd717e6a320cf44b4afac2b0732d9fcbe2b7fa0cf801929190910190620001c1565b50606082015180516200016b916003840191602090910190620001c1565b50608082015160048201805460a08501511515600160a01b0260ff60a01b196001600160a01b039094166001600160a01b0319909216919091179290921691909117905560c09091015160059091015550505050565b828054620001cf9062000267565b90600052602060002090601f016020900481019282620001f357600085556200023e565b82601f106200020e57805160ff19168380011785556200023e565b828001600101855582156200023e579182015b828111156200023e57825182559160200191906001019062000221565b506200024c92915062000250565b5090565b5b808211156200024c576000815560010162000251565b6002810460018216806200027c57607f821691505b602082108114156200029e57634e487b7160e01b600052602260045260246000fd5b50919050565b6000600019821415620002c557634e487b7160e01b81526011600452602481fd5b5060010190565b610c3b80620002dc6000396000f3fe608060405234801561001057600080fd5b506004361061007d5760003560e01c8063c798ff7d1161005b578063c798ff7d146100c8578063d7bce658146100db578063f02dd53f146100f0578063f9c43bdf146101105761007d565b8063289c64251461008257806364f88b7114610097578063b7b6e543146100aa575b600080fd5b61009561009036600461095a565b610123565b005b6100956100a53660046109cc565b610278565b6100b261037b565b6040516100bf9190610b0a565b60405180910390f35b6100956100d6366004610920565b610548565b6100e36105a3565b6040516100bf9190610b84565b6101036100fe366004610908565b6105a9565b6040516100bf9190610b6a565b61009561011e366004610908565b610759565b60008054908061013283610bc8565b90915550506040805160e08101825260008054825260208083018881529383018781526060840187905233608085015260a0840183905260c084018690526001805480820182559352835160069093027fb10e2d527612073b26eecdfd717e6a320cf44b4afac2b0732d9fcbe2b7fa0cf6810193845594517fb10e2d527612073b26eecdfd717e6a320cf44b4afac2b0732d9fcbe2b7fa0cf786015551805193949293610206937fb10e2d527612073b26eecdfd717e6a320cf44b4afac2b0732d9fcbe2b7fa0cf8019291909101906107a6565b50606082015180516102229160038401916020909101906107a6565b50608082015160048201805460a08501511515600160a01b0260ff60a01b196001600160a01b039094166001600160a01b0319909216919091179290921691909117905560c09091015160059091015550505050565b836001868154811061029a57634e487b7160e01b600052603260045260246000fd5b90600052602060002090600602016001018190555082600186815481106102d157634e487b7160e01b600052603260045260246000fd5b906000526020600020906006020160030190805190602001906102f59291906107a6565b50816001868154811061031857634e487b7160e01b600052603260045260246000fd5b9060005260206000209060060201600201908051906020019061033c9291906107a6565b50806001868154811061035f57634e487b7160e01b600052603260045260246000fd5b9060005260206000209060060201600501819055505050505050565b60606001805480602002602001604051908101604052809291908181526020016000905b8282101561053f57838290600052602060002090600602016040518060e001604052908160008201548152602001600182015481526020016002820180546103e690610b8d565b80601f016020809104026020016040519081016040528092919081815260200182805461041290610b8d565b801561045f5780601f106104345761010080835404028352916020019161045f565b820191906000526020600020905b81548152906001019060200180831161044257829003601f168201915b5050505050815260200160038201805461047890610b8d565b80601f01602080910402602001604051908101604052809291908181526020018280546104a490610b8d565b80156104f15780601f106104c6576101008083540402835291602001916104f1565b820191906000526020600020905b8154815290600101906020018083116104d457829003601f168201915b505050918352505060048201546001600160a01b038116602080840191909152600160a01b90910460ff1615156040830152600590920154606090910152908252600192909201910161039f565b50505050905090565b806001838154811061056a57634e487b7160e01b600052603260045260246000fd5b906000526020600020906006020160040160006101000a8154816001600160a01b0302191690836001600160a01b031602179055505050565b60005481565b6105b161082a565b600182815481106105d257634e487b7160e01b600052603260045260246000fd5b90600052602060002090600602016040518060e0016040529081600082015481526020016001820154815260200160028201805461060f90610b8d565b80601f016020809104026020016040519081016040528092919081815260200182805461063b90610b8d565b80156106885780601f1061065d57610100808354040283529160200191610688565b820191906000526020600020905b81548152906001019060200180831161066b57829003601f168201915b505050505081526020016003820180546106a190610b8d565b80601f01602080910402602001604051908101604052809291908181526020018280546106cd90610b8d565b801561071a5780601f106106ef5761010080835404028352916020019161071a565b820191906000526020600020905b8154815290600101906020018083116106fd57829003601f168201915b505050918352505060048201546001600160a01b0381166020830152600160a01b900460ff161515604082015260059091015460609091015292915050565b600180828154811061077b57634e487b7160e01b600052603260045260246000fd5b906000526020600020906006020160040160146101000a81548160ff02191690831515021790555050565b8280546107b290610b8d565b90600052602060002090601f0160209004810192826107d4576000855561081a565b82601f106107ed57805160ff191683800117855561081a565b8280016001018555821561081a579182015b8281111561081a5782518255916020019190600101906107ff565b50610826929150610872565b5090565b6040518060e001604052806000815260200160008152602001606081526020016060815260200160006001600160a01b03168152602001600015158152602001600081525090565b5b808211156108265760008155600101610873565b600082601f830112610897578081fd5b813567ffffffffffffffff808211156108b2576108b2610bef565b604051601f8301601f1916810160200182811182821017156108d6576108d6610bef565b6040528281528483016020018610156108ed578384fd5b82602086016020830137918201602001929092529392505050565b600060208284031215610919578081fd5b5035919050565b60008060408385031215610932578081fd5b8235915060208301356001600160a01b038116811461094f578182fd5b809150509250929050565b6000806000806080858703121561096f578182fd5b84359350602085013567ffffffffffffffff8082111561098d578384fd5b61099988838901610887565b945060408701359150808211156109ae578384fd5b506109bb87828801610887565b949793965093946060013593505050565b600080600080600060a086880312156109e3578081fd5b8535945060208601359350604086013567ffffffffffffffff80821115610a08578283fd5b610a1489838a01610887565b94506060880135915080821115610a29578283fd5b50610a3688828901610887565b95989497509295608001359392505050565b60008151808452815b81811015610a6d57602081850181015186830182015201610a51565b81811115610a7e5782602083870101525b50601f01601f19169290920160200192915050565b60008151835260208201516020840152604082015160e06040850152610abc60e0850182610a48565b905060608301518482036060860152610ad58282610a48565b6080858101516001600160a01b03169087015260a08581015115159087015260c0948501519490950193909352509192915050565b6000602080830181845280855180835260408601915060408482028701019250838701855b82811015610b5d57603f19888603018452610b4b858351610a93565b94509285019290850190600101610b2f565b5092979650505050505050565b600060208252610b7d6020830184610a93565b9392505050565b90815260200190565b600281046001821680610ba157607f821691505b60208210811415610bc257634e487b7160e01b600052602260045260246000fd5b50919050565b6000600019821415610be857634e487b7160e01b81526011600452602481fd5b5060010190565b634e487b7160e01b600052604160045260246000fdfea26469706673582212203501c38c762b223349da29987d917f502797a6ce8b6b0b693f250240f46af8a664736f6c63430008000033454e534941532c204176656e7565204d6f68616d656442656e20416264656c6c61682052656772616775692c4d6164696e617420416c20497266616e652c2052616261742e",
  "immutableReferences": {},
  "source": "// SPDX-License-Identifier: UNLICENSED\r\npragma solidity >=0.4.22;\r\npragma experimental ABIEncoderV2;\r\n\r\ncontract LandContract {\r\n\tuint public landCount = 0;\r\n\tstruct LandStruct {\r\n\t\tuint landNumber;\r\n \t\tuint area;\r\n \t\tstring addr;\r\n\t\tstring description;\r\n \t\taddress owner;\r\n \t\tbool verificationStatus;\r\n \t\tuint price;\r\n\t}\r\n\tLandStruct[] lands;\r\n\r\n\tconstructor () public {\r\n\t\tcreateLand(11, \"Morocco\", \"ENSIAS, Avenue MohamedBen Abdellah Regragui,Madinat Al Irfane, Rabat.\", 100000);\r\n\t}\r\n\r\n\tfunction getAllLands() public view returns (LandStruct[] memory) {\r\n\t\treturn lands;\r\n\t}\r\n\r\n\tfunction createLand(uint area, string memory description, string memory addr, uint price) public {\r\n\t\tlandCount++;\r\n\t\tlands.push(LandStruct(landCount, area, description, addr, msg.sender, false, price));\r\n\t}\r\n\r\n\tfunction verifyLand(uint _id) public {\r\n\t\tlands[_id].verificationStatus = true;\r\n\t}\r\n \r\n\tfunction getLand(uint _id) public view returns (LandStruct memory) {\r\n\t\treturn lands[_id];\r\n\t}\r\n\r\n\tfunction modifyLand(uint _id, uint area, string memory description, string memory addr, uint price) public {\r\n\t\tlands[_id].area = area;\r\n\t\tlands[_id].description = description;\r\n\t\tlands[_id].addr = addr;\r\n\t\tlands[_id].price = price;\r\n\t}\r\n\r\n\tfunction transferLand(uint _id, address _newOwner) public {\r\n\t\tlands[_id].owner = _newOwner;\r\n\t}\r\n\r\n}\r\n",
  "sourcePath": "D:\\PFA\\ethereum-based-land-registry-marketplace\\land-registery-blockchain\\contracts\\LandContract.sol",
  "compiler": {
    "name": "solc",
    "version": "0.8.0+commit.c7dfd78e.Emscripten.clang"
  },
  "schemaVersion": "3.4.14",
  "updatedAt": "2023-06-03T00:07:13.813Z",
  "networkType": "ethereum",
  "devdoc": {
    "kind": "dev",
    "methods": {},
    "version": 1
  },
  "userdoc": {
    "kind": "user",
    "methods": {},
    "version": 1
  }
}