{
  "contractName": "UserContract",
  "abi": [
    {
      "inputs": [],
      "payable": false,
      "stateMutability": "nonpayable",
      "type": "constructor"
    },
    {
      "constant": true,
      "inputs": [],
      "name": "userCount",
      "outputs": [
        {
          "internalType": "uint256",
          "name": "",
          "type": "uint256"
        }
      ],
      "payable": false,
      "stateMutability": "view",
      "type": "function"
    },
    {
      "constant": false,
      "inputs": [
        {
          "internalType": "string",
          "name": "name",
          "type": "string"
        },
        {
          "internalType": "uint256",
          "name": "age",
          "type": "uint256"
        },
        {
          "internalType": "string",
          "name": "addr",
          "type": "string"
        }
      ],
      "name": "createUser",
      "outputs": [],
      "payable": false,
      "stateMutability": "nonpayable",
      "type": "function"
    },
    {
      "constant": false,
      "inputs": [
        {
          "internalType": "uint256",
          "name": "_id",
          "type": "uint256"
        }
      ],
      "name": "setLandInspector",
      "outputs": [],
      "payable": false,
      "stateMutability": "nonpayable",
      "type": "function"
    },
    {
      "constant": true,
      "inputs": [],
      "name": "getAllUsers",
      "outputs": [
        {
          "components": [
            {
              "internalType": "string",
              "name": "name",
              "type": "string"
            },
            {
              "internalType": "uint256",
              "name": "age",
              "type": "uint256"
            },
            {
              "internalType": "string",
              "name": "addr",
              "type": "string"
            },
            {
              "internalType": "address",
              "name": "userAddress",
              "type": "address"
            },
            {
              "internalType": "bool",
              "name": "isLandInspector",
              "type": "bool"
            },
            {
              "internalType": "uint256",
              "name": "totalLandsOwned",
              "type": "uint256"
            },
            {
              "internalType": "uint256",
              "name": "totalEarnings",
              "type": "uint256"
            },
            {
              "internalType": "uint256",
              "name": "totalSpent",
              "type": "uint256"
            }
          ],
          "internalType": "struct UserContract.UserStruct[]",
          "name": "",
          "type": "tuple[]"
        }
      ],
      "payable": false,
      "stateMutability": "view",
      "type": "function"
    },
    {
      "constant": true,
      "inputs": [
        {
          "internalType": "uint256",
          "name": "_id",
          "type": "uint256"
        }
      ],
      "name": "getUser",
      "outputs": [
        {
          "components": [
            {
              "internalType": "string",
              "name": "name",
              "type": "string"
            },
            {
              "internalType": "uint256",
              "name": "age",
              "type": "uint256"
            },
            {
              "internalType": "string",
              "name": "addr",
              "type": "string"
            },
            {
              "internalType": "address",
              "name": "userAddress",
              "type": "address"
            },
            {
              "internalType": "bool",
              "name": "isLandInspector",
              "type": "bool"
            },
            {
              "internalType": "uint256",
              "name": "totalLandsOwned",
              "type": "uint256"
            },
            {
              "internalType": "uint256",
              "name": "totalEarnings",
              "type": "uint256"
            },
            {
              "internalType": "uint256",
              "name": "totalSpent",
              "type": "uint256"
            }
          ],
          "internalType": "struct UserContract.UserStruct",
          "name": "",
          "type": "tuple"
        }
      ],
      "payable": false,
      "stateMutability": "view",
      "type": "function"
    },
    {
      "constant": false,
      "inputs": [
        {
          "internalType": "uint256",
          "name": "_id",
          "type": "uint256"
        },
        {
          "internalType": "string",
          "name": "name",
          "type": "string"
        },
        {
          "internalType": "uint256",
          "name": "age",
          "type": "uint256"
        },
        {
          "internalType": "string",
          "name": "addr",
          "type": "string"
        }
      ],
      "name": "modifyUser",
      "outputs": [],
      "payable": false,
      "stateMutability": "nonpayable",
      "type": "function"
    },
    {
      "constant": false,
      "inputs": [
        {
          "internalType": "uint256",
          "name": "_id",
          "type": "uint256"
        }
      ],
      "name": "increaseLandOwnership",
      "outputs": [],
      "payable": false,
      "stateMutability": "nonpayable",
      "type": "function"
    },
    {
      "constant": false,
      "inputs": [
        {
          "internalType": "uint256",
          "name": "_id",
          "type": "uint256"
        },
        {
          "internalType": "uint256",
          "name": "amount",
          "type": "uint256"
        }
      ],
      "name": "increaseEarnings",
      "outputs": [],
      "payable": false,
      "stateMutability": "nonpayable",
      "type": "function"
    },
    {
      "constant": false,
      "inputs": [
        {
          "internalType": "uint256",
          "name": "_id",
          "type": "uint256"
        },
        {
          "internalType": "uint256",
          "name": "amount",
          "type": "uint256"
        }
      ],
      "name": "increaseSpendings",
      "outputs": [],
      "payable": false,
      "stateMutability": "nonpayable",
      "type": "function"
    }
  ],
  "bytecode": "0x60806040526000805534801561001457600080fd5b50610061604051806040016040528060048152602001635a796e6f60e01b815250601460405180604001604052806006815260200165454e5349415360d01b81525061006660201b60201c565b610222565b6000805460019081018255604080516101008101825286815260208082018790529181018590523360608201526080810184905260a0810184905260c0810184905260e08101849052825480840180855593909452805180519394919360079092027fb10e2d527612073b26eecdfd717e6a320cf44b4afac2b0732d9fcbe2b7fa0cf601926100fa92849290910190610187565b5060208281015160018301556040830151805161011d9260028501920190610187565b50606082015160038201805460808501511515600160a01b0260ff60a01b196001600160a01b039094166001600160a01b0319909216919091179290921691909117905560a0820151600482015560c0820151600582015560e09091015160069091015550505050565b828054600181600116156101000203166002900490600052602060002090601f016020900481019282601f106101c857805160ff19168380011785556101f5565b828001600101855582156101f5579182015b828111156101f55782518255916020019190600101906101da565b50610201929150610205565b5090565b61021f91905b80821115610201576000815560010161020b565b90565b610cfe80620002326000396000f3fe608060405234801561001057600080fd5b50600436106100935760003560e01c8063b0467deb11610066578063b0467deb146100f1578063b08f080a14610111578063e2842d7914610124578063f698a8f814610139578063fd8168ef1461014c57610093565b806307973ccf14610098578063195ac7a0146100b657806326bd8772146100cb5780632887b519146100de575b600080fd5b6100a061015f565b6040516100ad9190610bd2565b60405180910390f35b6100c96100c4366004610936565b610165565b005b6100c96100d93660046108ba565b610190565b6100c96100ec3660046109ed565b6102b1565b6101046100ff366004610936565b6102dd565b6040516100ad9190610bc1565b6100c961011f3660046109ed565b610494565b61012c6104c0565b6040516100ad9190610bb0565b6100c961014736600461095c565b6106a5565b6100c961015a366004610936565b610734565b60005481565b600180828154811061017357fe5b600091825260209091206004600790920201018054909101905550565b6000805460019081018255604080516101008101825286815260208082018790529181018590523360608201526080810184905260a0810184905260c0810184905260e08101849052825480840180855593909452805180519394919360079092027fb10e2d527612073b26eecdfd717e6a320cf44b4afac2b0732d9fcbe2b7fa0cf601926102249284929091019061076d565b50602082810151600183015560408301518051610247926002850192019061076d565b50606082015160038201805460808501511515600160a01b0260ff60a01b196001600160a01b039094166001600160a01b0319909216919091179290921691909117905560a0820151600482015560c0820151600582015560e09091015160069091015550505050565b80600183815481106102bf57fe5b60009182526020909120600660079092020101805490910190555050565b6102e56107eb565b600182815481106102f257fe5b60009182526020918290206040805160079390930290910180546002610100600183161581026000190190921604601f810186900490950284016101209081019093528301848152929390928492909184918401828280156103955780601f1061036a57610100808354040283529160200191610395565b820191906000526020600020905b81548152906001019060200180831161037857829003601f168201915b5050505050815260200160018201548152602001600282018054600181600116156101000203166002900480601f0160208091040260200160405190810160405280929190818152602001828054600181600116156101000203166002900480156104415780601f1061041657610100808354040283529160200191610441565b820191906000526020600020905b81548152906001019060200180831161042457829003601f168201915b505050918352505060038201546001600160a01b0381166020830152600160a01b900460ff1615156040820152600482015460608201526005820154608082015260069091015460a09091015292915050565b80600183815481106104a257fe5b60009182526020909120600560079092020101805490910190555050565b60606001805480602002602001604051908101604052809291908181526020016000905b8282101561069b576000848152602090819020604080516007860290920180546002610100600183161581026000190190921604601f8101869004909502840161012090810190935283018481529293909284929091849184018282801561058d5780601f106105625761010080835404028352916020019161058d565b820191906000526020600020905b81548152906001019060200180831161057057829003601f168201915b5050505050815260200160018201548152602001600282018054600181600116156101000203166002900480601f0160208091040260200160405190810160405280929190818152602001828054600181600116156101000203166002900480156106395780601f1061060e57610100808354040283529160200191610639565b820191906000526020600020905b81548152906001019060200180831161061c57829003601f168201915b505050918352505060038201546001600160a01b038116602080840191909152600160a01b90910460ff1615156040830152600483015460608301526005830154608083015260069092015460a09091015290825260019290920191016104e4565b5050505090505b90565b82600185815481106106b357fe5b906000526020600020906007020160000190805190602001906106d792919061076d565b5081600185815481106106e657fe5b906000526020600020906007020160010181905550806001858154811061070957fe5b9060005260206000209060070201600201908051906020019061072d92919061076d565b5050505050565b600180828154811061074257fe5b906000526020600020906007020160030160146101000a81548160ff02191690831515021790555050565b828054600181600116156101000203166002900490600052602060002090601f016020900481019282601f106107ae57805160ff19168380011785556107db565b828001600101855582156107db579182015b828111156107db5782518255916020019190600101906107c0565b506107e792915061083b565b5090565b60405180610100016040528060608152602001600081526020016060815260200160006001600160a01b031681526020016000151581526020016000815260200160008152602001600081525090565b6106a291905b808211156107e75760008155600101610841565b600082601f83011261086657600080fd5b813561087961087482610c07565b610be0565b9150808252602083016020830185838301111561089557600080fd5b6108a0838284610c5e565b50505092915050565b80356108b481610ca4565b92915050565b6000806000606084860312156108cf57600080fd5b833567ffffffffffffffff8111156108e657600080fd5b6108f286828701610855565b9350506020610903868287016108a9565b925050604084013567ffffffffffffffff81111561092057600080fd5b61092c86828701610855565b9150509250925092565b60006020828403121561094857600080fd5b600061095484846108a9565b949350505050565b6000806000806080858703121561097257600080fd5b600061097e87876108a9565b945050602085013567ffffffffffffffff81111561099b57600080fd5b6109a787828801610855565b93505060406109b8878288016108a9565b925050606085013567ffffffffffffffff8111156109d557600080fd5b6109e187828801610855565b91505092959194509250565b60008060408385031215610a0057600080fd5b6000610a0c85856108a9565b9250506020610a1d858286016108a9565b9150509250929050565b6000610a338383610af8565b9392505050565b610a4381610c42565b82525050565b6000610a5482610c35565b610a5e8185610c39565b935083602082028501610a7085610c2f565b8060005b85811015610aaa5784840389528151610a8d8582610a27565b9450610a9883610c2f565b60209a909a0199925050600101610a74565b5091979650505050505050565b610a4381610c4d565b6000610acb82610c35565b610ad58185610c39565b9350610ae5818560208601610c6a565b610aee81610c9a565b9093019392505050565b805161010080845260009190840190610b118282610ac0565b9150506020830151610b266020860182610ba7565b5060408301518482036040860152610b3e8282610ac0565b9150506060830151610b536060860182610a3a565b506080830151610b666080860182610ab7565b5060a0830151610b7960a0860182610ba7565b5060c0830151610b8c60c0860182610ba7565b5060e0830151610b9f60e0860182610ba7565b509392505050565b610a43816106a2565b60208082528101610a338184610a49565b60208082528101610a338184610af8565b602081016108b48284610ba7565b60405181810167ffffffffffffffff81118282101715610bff57600080fd5b604052919050565b600067ffffffffffffffff821115610c1e57600080fd5b506020601f91909101601f19160190565b60200190565b5190565b90815260200190565b60006108b482610c52565b151590565b6001600160a01b031690565b82818337506000910152565b60005b83811015610c85578181015183820152602001610c6d565b83811115610c94576000848401525b50505050565b601f01601f191690565b610cad816106a2565b8114610cb857600080fd5b5056fea365627a7a72315820f690523dd054badecb57ce2af038b9532646e87b52d9bbe24e36c05cc513d39d6c6578706572696d656e74616cf564736f6c63430005100040",
  "source": "// SPDX-License-Identifier: MIT\r\npragma solidity >=0.4.22;\r\npragma experimental ABIEncoderV2;\r\ncontract UserContract {\r\n\tuint public userCount = 0;\r\n\tstruct UserStruct {\r\n\t\tstring name;\r\n\t\tuint age;\r\n\t\tstring addr;\r\n\t\taddress userAddress;\r\n\t\tbool isLandInspector;\r\n\t\tuint totalLandsOwned;\r\n\t\tuint totalEarnings;\r\n\t\tuint totalSpent;\r\n\t}\r\n\tUserStruct[] users;\r\n\tconstructor() public {\r\n\t\tcreateUser(\"Zyno\", 20, \"ENSIAS\");\r\n\t}\r\n\r\n \tfunction createUser(string memory name, uint age, string memory addr) public {\r\n \t\tuserCount++;\r\n\t\tusers.push(UserStruct(name, age, addr, msg.sender, false, 0, 0, 0));\r\n\t}\r\n\r\n\tfunction setLandInspector(uint _id) public {\r\n\t\tusers[_id].isLandInspector = true;\r\n\t}\r\n\tfunction getAllUsers() public view returns (UserStruct[] memory) {\r\n\t\treturn users;\r\n\t}\r\n\r\n\tfunction getUser(uint _id) public view returns (UserStruct memory) {\r\n\t\treturn users[_id];\r\n\t}\r\n\r\n\tfunction modifyUser(uint _id, string memory name, uint age, string memory addr) public {\r\n\t\tusers[_id].name = name ;\r\n\t\tusers[_id].age = age ;\r\n\t\tusers[_id].addr = addr ;\r\n\t}\r\n\r\n\tfunction increaseLandOwnership(uint _id) public {\r\n\t\tusers[_id].totalLandsOwned += 1;\r\n\t}\r\n\r\n\tfunction increaseEarnings(uint _id, uint amount) public {\r\n\t\tusers[_id].totalEarnings += amount;\r\n\t}\r\n\r\n\tfunction increaseSpendings(uint _id, uint amount) public {\r\n\t\tusers[_id].totalSpent += amount;\r\n\t}\r\n\r\n\r\n}",
  "sourcePath": "/mnt/d/Land Registry/land-registery-blockchain/contracts/UserContract.sol",
  "compiler": {
    "name": "solc",
    "version": "0.5.16+commit.9c3226ce.Emscripten.clang"
  },
  "schemaVersion": "3.4.7",
  "updatedAt": "2022-06-14T18:59:05.988Z",
  "networkType": "ethereum",
  "devdoc": {
    "methods": {}
  },
  "userdoc": {
    "methods": {}
  }
}